{
    "abi": [
        {
            "type": "constructor",
            "inputs": [],
            "stateMutability": "nonpayable"
        },
        {
            "type": "function",
            "name": "comment",
            "inputs": [
                {
                    "name": "name",
                    "type": "string",
                    "internalType": "string"
                },
                {
                    "name": "message",
                    "type": "string",
                    "internalType": "string"
                }
            ],
            "outputs": [],
            "stateMutability": "payable"
        },
        {
            "type": "function",
            "name": "getMemos",
            "inputs": [],
            "outputs": [
                {
                    "name": "",
                    "type": "tuple[]",
                    "internalType": "struct feedback.Memo[]",
                    "components": [
                        {
                            "name": "name",
                            "type": "string",
                            "internalType": "string"
                        },
                        {
                            "name": "message",
                            "type": "string",
                            "internalType": "string"
                        },
                        {
                            "name": "timestamp",
                            "type": "uint256",
                            "internalType": "uint256"
                        },
                        {
                            "name": "from",
                            "type": "address",
                            "internalType": "address"
                        }
                    ]
                }
            ],
            "stateMutability": "view"
        }
    ],
    "bytecode": {
        "object": "0x608060405234801561001057600080fd5b50600180546001600160a01b031916331790556106d4806100326000396000f3fe6080604052600436106100295760003560e01c806343d239bd1461002e578063865c517214610043575b600080fd5b61004161003c3660046103e9565b61006e565b005b34801561004f57600080fd5b506100586101fa565b604051610065919061049b565b60405180910390f35b600034116100c25760405162461bcd60e51b815260206004820152601c60248201527f506c6561736520706179206d6f7265207468616e203020657468657200000000604482015260640160405180910390fd5b6001546040516001600160a01b03909116903480156108fc02916000818181858888f193505050501580156100fb573d6000803e3d6000fd5b506040805160a06020601f87018190040282018101909252608081018581526000928291908890889081908501838280828437600092019190915250505090825250604080516020601f8701819004810282018101909252858152918101919086908690819084018382808284376000920182905250938552505042602080850191909152336040909401939093525083546001810185559381522081519192600402019081906101ac90826105de565b50602082015160018201906101c190826105de565b5060408201516002820155606090910151600390910180546001600160a01b0319166001600160a01b0390921691909117905550505050565b60606000805480602002602001604051908101604052809291908181526020016000905b82821015610397578382906000526020600020906004020160405180608001604052908160008201805461025190610555565b80601f016020809104026020016040519081016040528092919081815260200182805461027d90610555565b80156102ca5780601f1061029f576101008083540402835291602001916102ca565b820191906000526020600020905b8154815290600101906020018083116102ad57829003601f168201915b505050505081526020016001820180546102e390610555565b80601f016020809104026020016040519081016040528092919081815260200182805461030f90610555565b801561035c5780601f106103315761010080835404028352916020019161035c565b820191906000526020600020905b81548152906001019060200180831161033f57829003601f168201915b505050918352505060028201546020808301919091526003909201546001600160a01b0316604090910152908252600192909201910161021e565b50505050905090565b60008083601f8401126103b257600080fd5b50813567ffffffffffffffff8111156103ca57600080fd5b6020830191508360208285010111156103e257600080fd5b9250929050565b600080600080604085870312156103ff57600080fd5b843567ffffffffffffffff8082111561041757600080fd5b610423888389016103a0565b9096509450602087013591508082111561043c57600080fd5b50610449878288016103a0565b95989497509550505050565b6000815180845260005b8181101561047b5760208185018101518683018201520161045f565b506000602082860101526020601f19601f83011685010191505092915050565b60006020808301818452808551808352604092508286019150828160051b87010184880160005b8381101561053157603f198984030185528151608081518186526104e882870182610455565b915050888201518582038a8701526105008282610455565b838a0151878b01526060938401516001600160a01b03169390960192909252505093860193908601906001016104c2565b509098975050505050505050565b634e487b7160e01b600052604160045260246000fd5b600181811c9082168061056957607f821691505b60208210810361058957634e487b7160e01b600052602260045260246000fd5b50919050565b601f8211156105d957600081815260208120601f850160051c810160208610156105b65750805b601f850160051c820191505b818110156105d5578281556001016105c2565b5050505b505050565b815167ffffffffffffffff8111156105f8576105f861053f565b61060c816106068454610555565b8461058f565b602080601f83116001811461064157600084156106295750858301515b600019600386901b1c1916600185901b1785556105d5565b600085815260208120601f198616915b8281101561067057888601518255948401946001909101908401610651565b508582101561068e5787850151600019600388901b60f8161c191681555b5050505050600190811b0190555056fea2646970667358221220243c4a102691a2ace2fef02aa1086328016dea101bbec016f6b44b20ad5b4bb764736f6c63430008150033",
        "linkReferences": {}
    }
}